{
  "contractName": "TokenVesting",
  "abi": [
    {
      "inputs": [
        {
          "internalType": "address",
          "name": "_stakingToken",
          "type": "address"
        },
        {
          "internalType": "address",
          "name": "_staker",
          "type": "address"
        },
        {
          "internalType": "uint256",
          "name": "_start",
          "type": "uint256"
        },
        {
          "internalType": "uint256",
          "name": "_duration",
          "type": "uint256"
        },
        {
          "internalType": "uint256",
          "name": "_stageCliffUnit",
          "type": "uint256"
        },
        {
          "internalType": "uint256",
          "name": "_stakedAmount",
          "type": "uint256"
        }
      ],
      "stateMutability": "nonpayable",
      "type": "constructor"
    },
    {
      "anonymous": false,
      "inputs": [
        {
          "indexed": true,
          "internalType": "address",
          "name": "previousOwner",
          "type": "address"
        },
        {
          "indexed": true,
          "internalType": "address",
          "name": "newOwner",
          "type": "address"
        }
      ],
      "name": "OwnershipTransferred",
      "type": "event"
    },
    {
      "anonymous": false,
      "inputs": [
        {
          "indexed": false,
          "internalType": "address",
          "name": "token",
          "type": "address"
        },
        {
          "indexed": false,
          "internalType": "uint256",
          "name": "amount",
          "type": "uint256"
        }
      ],
      "name": "TokensReleased",
      "type": "event"
    },
    {
      "inputs": [],
      "name": "duration",
      "outputs": [
        {
          "internalType": "uint256",
          "name": "",
          "type": "uint256"
        }
      ],
      "stateMutability": "view",
      "type": "function"
    },
    {
      "inputs": [],
      "name": "owner",
      "outputs": [
        {
          "internalType": "address",
          "name": "",
          "type": "address"
        }
      ],
      "stateMutability": "view",
      "type": "function"
    },
    {
      "inputs": [
        {
          "internalType": "address",
          "name": "",
          "type": "address"
        }
      ],
      "name": "released",
      "outputs": [
        {
          "internalType": "uint256",
          "name": "",
          "type": "uint256"
        }
      ],
      "stateMutability": "view",
      "type": "function"
    },
    {
      "inputs": [],
      "name": "renounceOwnership",
      "outputs": [],
      "stateMutability": "nonpayable",
      "type": "function"
    },
    {
      "inputs": [],
      "name": "stageCliffUnit",
      "outputs": [
        {
          "internalType": "uint256",
          "name": "",
          "type": "uint256"
        }
      ],
      "stateMutability": "view",
      "type": "function"
    },
    {
      "inputs": [],
      "name": "stakedAmount",
      "outputs": [
        {
          "internalType": "uint256",
          "name": "",
          "type": "uint256"
        }
      ],
      "stateMutability": "view",
      "type": "function"
    },
    {
      "inputs": [],
      "name": "staker",
      "outputs": [
        {
          "internalType": "address",
          "name": "",
          "type": "address"
        }
      ],
      "stateMutability": "view",
      "type": "function"
    },
    {
      "inputs": [],
      "name": "stakingToken",
      "outputs": [
        {
          "internalType": "address",
          "name": "",
          "type": "address"
        }
      ],
      "stateMutability": "view",
      "type": "function"
    },
    {
      "inputs": [],
      "name": "start",
      "outputs": [
        {
          "internalType": "uint256",
          "name": "",
          "type": "uint256"
        }
      ],
      "stateMutability": "view",
      "type": "function"
    },
    {
      "inputs": [],
      "name": "totalShares",
      "outputs": [
        {
          "internalType": "uint256",
          "name": "",
          "type": "uint256"
        }
      ],
      "stateMutability": "view",
      "type": "function"
    },
    {
      "inputs": [
        {
          "internalType": "address",
          "name": "newOwner",
          "type": "address"
        }
      ],
      "name": "transferOwnership",
      "outputs": [],
      "stateMutability": "nonpayable",
      "type": "function"
    },
    {
      "inputs": [
        {
          "internalType": "contract IERC20",
          "name": "token",
          "type": "address"
        }
      ],
      "name": "release",
      "outputs": [],
      "stateMutability": "nonpayable",
      "type": "function"
    },
    {
      "inputs": [
        {
          "internalType": "contract IERC20",
          "name": "token",
          "type": "address"
        }
      ],
      "name": "releasableAmount",
      "outputs": [
        {
          "internalType": "uint256",
          "name": "",
          "type": "uint256"
        }
      ],
      "stateMutability": "view",
      "type": "function"
    }
  ],
  "bytecode": "0x608060405260646006553480156200001657600080fd5b5060405162001ae338038062001ae383398181016040528101906200003c91906200032f565b6200005c620000506200021d60201b60201c565b6200022560201b60201c565b600073ffffffffffffffffffffffffffffffffffffffff168573ffffffffffffffffffffffffffffffffffffffff161415620000cf576040517f08c379a0000000000000000000000000000000000000000000000000000000008152600401620000c6906200045c565b60405180910390fd5b42620000ea8486620002e960201b620006631790919060201c565b116200012d576040517f08c379a000000000000000000000000000000000000000000000000000000000815260040162000124906200043a565b60405180910390fd5b8183101562000173576040517f08c379a00000000000000000000000000000000000000000000000000000000081526004016200016a906200047e565b60405180910390fd5b85600160006101000a81548173ffffffffffffffffffffffffffffffffffffffff021916908373ffffffffffffffffffffffffffffffffffffffff16021790555084600260006101000a81548173ffffffffffffffffffffffffffffffffffffffff021916908373ffffffffffffffffffffffffffffffffffffffff160217905550836003819055508260048190555081600581905550806007819055505050505050506200069c565b600033905090565b60008060009054906101000a900473ffffffffffffffffffffffffffffffffffffffff169050816000806101000a81548173ffffffffffffffffffffffffffffffffffffffff021916908373ffffffffffffffffffffffffffffffffffffffff1602179055508173ffffffffffffffffffffffffffffffffffffffff168173ffffffffffffffffffffffffffffffffffffffff167f8be0079c531659141344cd1fd0a4f28419497f9722a3daafe3b4186f6b6457e060405160405180910390a35050565b60008183620002f99190620004b1565b905092915050565b600081519050620003128162000668565b92915050565b600081519050620003298162000682565b92915050565b60008060008060008060c087890312156200034957600080fd5b60006200035989828a0162000301565b96505060206200036c89828a0162000301565b95505060406200037f89828a0162000318565b94505060606200039289828a0162000318565b9350506080620003a589828a0162000318565b92505060a0620003b889828a0162000318565b9150509295509295509295565b6000620003d4602f83620004a0565b9150620003e1826200057b565b604082019050919050565b6000620003fb602883620004a0565b91506200040882620005ca565b604082019050919050565b600062000422602e83620004a0565b91506200042f8262000619565b604082019050919050565b600060208201905081810360008301526200045581620003c5565b9050919050565b600060208201905081810360008301526200047781620003ec565b9050919050565b60006020820190508181036000830152620004998162000413565b9050919050565b600082825260208201905092915050565b6000620004be8262000542565b9150620004cb8362000542565b9250827fffffffffffffffffffffffffffffffffffffffffffffffffffffffffffffffff038211156200050357620005026200054c565b5b828201905092915050565b60006200051b8262000522565b9050919050565b600073ffffffffffffffffffffffffffffffffffffffff82169050919050565b6000819050919050565b7f4e487b7100000000000000000000000000000000000000000000000000000000600052601160045260246000fd5b7f546f6b656e56657374696e673a2066696e616c2074696d65206973206265666f60008201527f72652063757272656e742074696d650000000000000000000000000000000000602082015250565b7f546f6b656e56657374696e673a207374616b657220697320746865207a65726f60008201527f2061646472657373000000000000000000000000000000000000000000000000602082015250565b7f546f6b656e56657374696e673a20506572696f6420697320677265617465722060008201527f7468616e20756e69742074696d65000000000000000000000000000000000000602082015250565b62000673816200050e565b81146200067f57600080fd5b50565b6200068d8162000542565b81146200069957600080fd5b50565b61143780620006ac6000396000f3fe608060405234801561001057600080fd5b50600436106100cf5760003560e01c80635ebaf1db1161008c5780638da5cb5b116100665780638da5cb5b146101de5780639852595c146101fc578063be9a65551461022c578063f2fde38b1461024a576100cf565b80635ebaf1db14610198578063715018a6146101b657806372f702f3146101c0576100cf565b80630fb5a6b4146100d45780631726cbc8146100f2578063191655871461012257806322ac3f501461013e578063373d61321461015c5780633a98ef391461017a575b600080fd5b6100dc610266565b6040516100e99190610ff0565b60405180910390f35b61010c60048036038101906101079190610d07565b61026c565b6040516101199190610ff0565b60405180910390f35b61013c60048036038101906101379190610d07565b6102cf565b005b61014661043e565b6040516101539190610ff0565b60405180910390f35b610164610444565b6040516101719190610ff0565b60405180910390f35b61018261044a565b60405161018f9190610ff0565b60405180910390f35b6101a0610450565b6040516101ad9190610eca565b60405180910390f35b6101be610476565b005b6101c86104fe565b6040516101d59190610eca565b60405180910390f35b6101e6610524565b6040516101f39190610eca565b60405180910390f35b61021660048036038101906102119190610cb5565b61054d565b6040516102239190610ff0565b60405180910390f35b610234610565565b6040516102419190610ff0565b60405180910390f35b610264600480360381019061025f9190610cb5565b61056b565b005b60045481565b60006102c8600860008473ffffffffffffffffffffffffffffffffffffffff1673ffffffffffffffffffffffffffffffffffffffff168152602001908152602001600020546102ba84610679565b61087690919063ffffffff16565b9050919050565b60006102da8261026c565b90506000811161031f576040517f08c379a000000000000000000000000000000000000000000000000000000000815260040161031690610f50565b60405180910390fd5b61037181600860008573ffffffffffffffffffffffffffffffffffffffff1673ffffffffffffffffffffffffffffffffffffffff1681526020019081526020016000205461066390919063ffffffff16565b600860008473ffffffffffffffffffffffffffffffffffffffff1673ffffffffffffffffffffffffffffffffffffffff16815260200190815260200160002081905550610401600260009054906101000a900473ffffffffffffffffffffffffffffffffffffffff16828473ffffffffffffffffffffffffffffffffffffffff1661088c9092919063ffffffff16565b7fc7798891864187665ac6dd119286e44ec13f014527aeeb2b8eb3fd413df931798282604051610432929190610ee5565b60405180910390a15050565b60055481565b60075481565b60065481565b600260009054906101000a900473ffffffffffffffffffffffffffffffffffffffff1681565b61047e610912565b73ffffffffffffffffffffffffffffffffffffffff1661049c610524565b73ffffffffffffffffffffffffffffffffffffffff16146104f2576040517f08c379a00000000000000000000000000000000000000000000000000000000081526004016104e990610f90565b60405180910390fd5b6104fc600061091a565b565b600160009054906101000a900473ffffffffffffffffffffffffffffffffffffffff1681565b60008060009054906101000a900473ffffffffffffffffffffffffffffffffffffffff16905090565b60086020528060005260406000206000915090505481565b60035481565b610573610912565b73ffffffffffffffffffffffffffffffffffffffff16610591610524565b73ffffffffffffffffffffffffffffffffffffffff16146105e7576040517f08c379a00000000000000000000000000000000000000000000000000000000081526004016105de90610f90565b60405180910390fd5b600073ffffffffffffffffffffffffffffffffffffffff168173ffffffffffffffffffffffffffffffffffffffff161415610657576040517f08c379a000000000000000000000000000000000000000000000000000000000815260040161064e90610f30565b60405180910390fd5b6106608161091a565b50565b60008183610671919061103d565b905092915050565b6000808273ffffffffffffffffffffffffffffffffffffffff166370a08231306040518263ffffffff1660e01b81526004016106b59190610eca565b60206040518083038186803b1580156106cd57600080fd5b505afa1580156106e1573d6000803e3d6000fd5b505050506040513d601f19601f820116820180604052508101906107059190610d30565b9050600061075b600860008673ffffffffffffffffffffffffffffffffffffffff1673ffffffffffffffffffffffffffffffffffffffff168152602001908152602001600020548361066390919063ffffffff16565b905061077460045460035461066390919063ffffffff16565b4210610784578092505050610871565b6000600160009054906101000a900473ffffffffffffffffffffffffffffffffffffffff1673ffffffffffffffffffffffffffffffffffffffff168573ffffffffffffffffffffffffffffffffffffffff161461086a576000600354905060006107fb6005546004546109de90919063ffffffff16565b905060005b818110156108665761081d6005548461066390919063ffffffff16565b92504283111561082c57610866565b61085161084283876109de90919063ffffffff16565b8561066390919063ffffffff16565b9350808061085e90611185565b915050610800565b5050505b8093505050505b919050565b6000818361088491906110c4565b905092915050565b61090d8363a9059cbb60e01b84846040516024016108ab929190610ee5565b604051602081830303815290604052907bffffffffffffffffffffffffffffffffffffffffffffffffffffffff19166020820180517bffffffffffffffffffffffffffffffffffffffffffffffffffffffff83818316178352505050506109f4565b505050565b600033905090565b60008060009054906101000a900473ffffffffffffffffffffffffffffffffffffffff169050816000806101000a81548173ffffffffffffffffffffffffffffffffffffffff021916908373ffffffffffffffffffffffffffffffffffffffff1602179055508173ffffffffffffffffffffffffffffffffffffffff168173ffffffffffffffffffffffffffffffffffffffff167f8be0079c531659141344cd1fd0a4f28419497f9722a3daafe3b4186f6b6457e060405160405180910390a35050565b600081836109ec9190611093565b905092915050565b6000610a56826040518060400160405280602081526020017f5361666545524332303a206c6f772d6c6576656c2063616c6c206661696c65648152508573ffffffffffffffffffffffffffffffffffffffff16610abb9092919063ffffffff16565b9050600081511115610ab65780806020019051810190610a769190610cde565b610ab5576040517f08c379a0000000000000000000000000000000000000000000000000000000008152600401610aac90610fd0565b60405180910390fd5b5b505050565b6060610aca8484600085610ad3565b90509392505050565b606082471015610b18576040517f08c379a0000000000000000000000000000000000000000000000000000000008152600401610b0f90610f70565b60405180910390fd5b610b2185610be7565b610b60576040517f08c379a0000000000000000000000000000000000000000000000000000000008152600401610b5790610fb0565b60405180910390fd5b6000808673ffffffffffffffffffffffffffffffffffffffff168587604051610b899190610eb3565b60006040518083038185875af1925050503d8060008114610bc6576040519150601f19603f3d011682016040523d82523d6000602084013e610bcb565b606091505b5091509150610bdb828286610bfa565b92505050949350505050565b600080823b905060008111915050919050565b60608315610c0a57829050610c5a565b600083511115610c1d5782518084602001fd5b816040517f08c379a0000000000000000000000000000000000000000000000000000000008152600401610c519190610f0e565b60405180910390fd5b9392505050565b600081359050610c70816113a5565b92915050565b600081519050610c85816113bc565b92915050565b600081359050610c9a816113d3565b92915050565b600081519050610caf816113ea565b92915050565b600060208284031215610cc757600080fd5b6000610cd584828501610c61565b91505092915050565b600060208284031215610cf057600080fd5b6000610cfe84828501610c76565b91505092915050565b600060208284031215610d1957600080fd5b6000610d2784828501610c8b565b91505092915050565b600060208284031215610d4257600080fd5b6000610d5084828501610ca0565b91505092915050565b610d62816110f8565b82525050565b6000610d738261100b565b610d7d8185611021565b9350610d8d818560208601611152565b80840191505092915050565b6000610da482611016565b610dae818561102c565b9350610dbe818560208601611152565b610dc78161122c565b840191505092915050565b6000610ddf60268361102c565b9150610dea8261123d565b604082019050919050565b6000610e02601f8361102c565b9150610e0d8261128c565b602082019050919050565b6000610e2560268361102c565b9150610e30826112b5565b604082019050919050565b6000610e4860208361102c565b9150610e5382611304565b602082019050919050565b6000610e6b601d8361102c565b9150610e768261132d565b602082019050919050565b6000610e8e602a8361102c565b9150610e9982611356565b604082019050919050565b610ead81611148565b82525050565b6000610ebf8284610d68565b915081905092915050565b6000602082019050610edf6000830184610d59565b92915050565b6000604082019050610efa6000830185610d59565b610f076020830184610ea4565b9392505050565b60006020820190508181036000830152610f288184610d99565b905092915050565b60006020820190508181036000830152610f4981610dd2565b9050919050565b60006020820190508181036000830152610f6981610df5565b9050919050565b60006020820190508181036000830152610f8981610e18565b9050919050565b60006020820190508181036000830152610fa981610e3b565b9050919050565b60006020820190508181036000830152610fc981610e5e565b9050919050565b60006020820190508181036000830152610fe981610e81565b9050919050565b60006020820190506110056000830184610ea4565b92915050565b600081519050919050565b600081519050919050565b600081905092915050565b600082825260208201905092915050565b600061104882611148565b915061105383611148565b9250827fffffffffffffffffffffffffffffffffffffffffffffffffffffffffffffffff03821115611088576110876111ce565b5b828201905092915050565b600061109e82611148565b91506110a983611148565b9250826110b9576110b86111fd565b5b828204905092915050565b60006110cf82611148565b91506110da83611148565b9250828210156110ed576110ec6111ce565b5b828203905092915050565b600061110382611128565b9050919050565b60008115159050919050565b6000611121826110f8565b9050919050565b600073ffffffffffffffffffffffffffffffffffffffff82169050919050565b6000819050919050565b60005b83811015611170578082015181840152602081019050611155565b8381111561117f576000848401525b50505050565b600061119082611148565b91507fffffffffffffffffffffffffffffffffffffffffffffffffffffffffffffffff8214156111c3576111c26111ce565b5b600182019050919050565b7f4e487b7100000000000000000000000000000000000000000000000000000000600052601160045260246000fd5b7f4e487b7100000000000000000000000000000000000000000000000000000000600052601260045260246000fd5b6000601f19601f8301169050919050565b7f4f776e61626c653a206e6577206f776e657220697320746865207a65726f206160008201527f6464726573730000000000000000000000000000000000000000000000000000602082015250565b7f546f6b656e56657374696e673a206e6f20746f6b656e73206172652064756500600082015250565b7f416464726573733a20696e73756666696369656e742062616c616e636520666f60008201527f722063616c6c0000000000000000000000000000000000000000000000000000602082015250565b7f4f776e61626c653a2063616c6c6572206973206e6f7420746865206f776e6572600082015250565b7f416464726573733a2063616c6c20746f206e6f6e2d636f6e7472616374000000600082015250565b7f5361666545524332303a204552433230206f7065726174696f6e20646964206e60008201527f6f74207375636365656400000000000000000000000000000000000000000000602082015250565b6113ae816110f8565b81146113b957600080fd5b50565b6113c58161110a565b81146113d057600080fd5b50565b6113dc81611116565b81146113e757600080fd5b50565b6113f381611148565b81146113fe57600080fd5b5056fea2646970667358221220a78a07d52310102441d133ac7dc420098052a9918bcc8263ae89d9f1bf12184964736f6c63430008040033",
  "immutableReferences": {},
  "source": "// SPDX-License-Identifier: MIT\npragma solidity ^0.8.0;\n\nimport \"@openzeppelin/contracts/access/Ownable.sol\";\nimport \"@openzeppelin/contracts/utils/math/SafeMath.sol\";\nimport \"@openzeppelin/contracts/token/ERC20/utils/SafeERC20.sol\";\n\ncontract TokenVesting is Ownable {\n    using SafeMath for uint256;\n    using SafeERC20 for IERC20;\n\n    event TokensReleased(address token, uint256 amount);\n\n    // staking token address\n    address public stakingToken;\n    // staker token address\n    address public staker;\n    // UNIX time, UTC timestamp, unit second, type uint, consistent with block.timestamp\n    // Contract start time, that is the lock start time\n    uint256 public start;\n    // Lock-in period, for example: 4 years\n    uint256 public duration;\n    // Truncation time unit for each stage\n    uint256 public stageCliffUnit;\n    // Total release ratio\n    uint256 public totalShares = 100;\n    // staked token amount\n    uint256 public stakedAmount;\n\n    // Record the withdrawal amount of each currency\n    mapping (address => uint256) public released;\n\n    constructor (\n        address _stakingToken,\n        address _staker,\n        uint256 _start,\n        uint256 _duration,\n        uint256 _stageCliffUnit,\n        uint256 _stakedAmount\n    ) {\n        require(_staker != address(0), \"TokenVesting: staker is the zero address\");\n        require(_start.add(_duration) > block.timestamp, \"TokenVesting: final time is before current time\");\n        require(_duration >= _stageCliffUnit, \"TokenVesting: Period is greater than unit time\");\n\n        stakingToken = _stakingToken;\n        staker = _staker;\n        start = _start;\n        duration = _duration;\n        stageCliffUnit = _stageCliffUnit;\n        stakedAmount = _stakedAmount;\n    }\n\n    // release token\n    function release(IERC20 token) public {\n        uint256 unreleased = releasableAmount(token);\n        require(unreleased > 0, \"TokenVesting: no tokens are due\");\n        released[address(token)] = released[address(token)].add(unreleased);\n        token.safeTransfer(staker, unreleased);\n        emit TokensReleased(address(token), unreleased);\n    }\n\n    // Calculate the number of tokens that can be release\n    function releasableAmount(IERC20 token) public view returns (uint256) {\n        return _vestedAmount(token).sub(released[address(token)]);\n    }\n\n    // Calculate the number of released tokens\n    function _vestedAmount(IERC20 token) private view returns (uint256) {\n        uint256 currentBalance = token.balanceOf(address(this));\n        uint256 totalBalance = currentBalance.add(released[address(token)]);\n\n        // Calculate the number of released tokens according to conditions\n        if (block.timestamp >= start.add(duration)) {\n            return totalBalance;\n        } else {\n            // Record the number of released tokens\n            uint256 vestedAmount = 0;\n            if (address(token) != stakingToken) {\n                // Cumulative release time\n                uint256 cumulativeTime = start;\n                // Calculate the number of releases in each stage\n                uint256 vestCount = duration.div(stageCliffUnit);\n                for (uint256 i = 0; i < vestCount; i++) {\n                    cumulativeTime = cumulativeTime.add(stageCliffUnit);\n                    if (cumulativeTime > block.timestamp) {\n                        break;\n                    }\n                    vestedAmount = vestedAmount.add(totalBalance.div(vestCount));\n                }\n            }\n            return vestedAmount;\n        }\n    }\n}\n",
  "sourcePath": "/Users/blues/Workspaces/DaoswapDex/daoswapdex-heco-testnet/core-staking/contracts/Staking/emission/TokenVesting.sol",
  "compiler": {
    "name": "solc",
    "version": "0.8.4+commit.c7e474f2.Emscripten.clang"
  },
  "schemaVersion": "3.4.3",
  "updatedAt": "2021-12-20T06:06:37.515Z",
  "devdoc": {
    "kind": "dev",
    "methods": {
      "owner()": {
        "details": "Returns the address of the current owner."
      },
      "renounceOwnership()": {
        "details": "Leaves the contract without owner. It will not be possible to call `onlyOwner` functions anymore. Can only be called by the current owner. NOTE: Renouncing ownership will leave the contract without an owner, thereby removing any functionality that is only available to the owner."
      },
      "transferOwnership(address)": {
        "details": "Transfers ownership of the contract to a new account (`newOwner`). Can only be called by the current owner."
      }
    },
    "version": 1
  },
  "userdoc": {
    "kind": "user",
    "methods": {},
    "version": 1
  }
}